{
  "_format": "hh-sol-artifact-1",
  "contractName": "MinesGame",
  "sourceName": "contracts/MinesGame.sol",
  "abi": [
    {
      "inputs": [],
      "stateMutability": "nonpayable",
      "type": "constructor"
    },
    {
      "anonymous": false,
      "inputs": [
        {
          "indexed": true,
          "internalType": "address",
          "name": "player",
          "type": "address"
        }
      ],
      "name": "GameLost",
      "type": "event"
    },
    {
      "anonymous": false,
      "inputs": [
        {
          "indexed": true,
          "internalType": "address",
          "name": "player",
          "type": "address"
        },
        {
          "indexed": false,
          "internalType": "uint256",
          "name": "betAmount",
          "type": "uint256"
        },
        {
          "indexed": false,
          "internalType": "uint8",
          "name": "mineCount",
          "type": "uint8"
        }
      ],
      "name": "GameStarted",
      "type": "event"
    },
    {
      "anonymous": false,
      "inputs": [
        {
          "indexed": true,
          "internalType": "address",
          "name": "player",
          "type": "address"
        },
        {
          "indexed": false,
          "internalType": "uint256",
          "name": "winnings",
          "type": "uint256"
        }
      ],
      "name": "GameWon",
      "type": "event"
    },
    {
      "anonymous": false,
      "inputs": [
        {
          "indexed": true,
          "internalType": "address",
          "name": "player",
          "type": "address"
        },
        {
          "indexed": false,
          "internalType": "uint8",
          "name": "tileIndex",
          "type": "uint8"
        },
        {
          "indexed": false,
          "internalType": "bool",
          "name": "isMine",
          "type": "bool"
        }
      ],
      "name": "TileRevealed",
      "type": "event"
    },
    {
      "inputs": [],
      "name": "addHouseFunds",
      "outputs": [],
      "stateMutability": "payable",
      "type": "function"
    },
    {
      "inputs": [
        {
          "internalType": "uint256",
          "name": "betAmount",
          "type": "uint256"
        },
        {
          "internalType": "uint8",
          "name": "totalMines",
          "type": "uint8"
        },
        {
          "internalType": "uint8",
          "name": "revealedSafeTiles",
          "type": "uint8"
        }
      ],
      "name": "calculateWinnings",
      "outputs": [
        {
          "internalType": "uint256",
          "name": "",
          "type": "uint256"
        }
      ],
      "stateMutability": "pure",
      "type": "function"
    },
    {
      "inputs": [],
      "name": "cashOut",
      "outputs": [],
      "stateMutability": "nonpayable",
      "type": "function"
    },
    {
      "inputs": [
        {
          "internalType": "address",
          "name": "",
          "type": "address"
        }
      ],
      "name": "games",
      "outputs": [
        {
          "internalType": "address",
          "name": "player",
          "type": "address"
        },
        {
          "internalType": "uint256",
          "name": "betAmount",
          "type": "uint256"
        },
        {
          "internalType": "uint8",
          "name": "totalMines",
          "type": "uint8"
        },
        {
          "internalType": "uint8",
          "name": "revealedSafeTiles",
          "type": "uint8"
        },
        {
          "internalType": "bool",
          "name": "isActive",
          "type": "bool"
        }
      ],
      "stateMutability": "view",
      "type": "function"
    },
    {
      "inputs": [
        {
          "internalType": "address",
          "name": "player",
          "type": "address"
        }
      ],
      "name": "getGameStatus",
      "outputs": [
        {
          "components": [
            {
              "internalType": "address",
              "name": "player",
              "type": "address"
            },
            {
              "internalType": "uint256",
              "name": "betAmount",
              "type": "uint256"
            },
            {
              "internalType": "uint8",
              "name": "totalMines",
              "type": "uint8"
            },
            {
              "internalType": "uint8",
              "name": "revealedSafeTiles",
              "type": "uint8"
            },
            {
              "internalType": "bool[]",
              "name": "revealedTiles",
              "type": "bool[]"
            },
            {
              "internalType": "uint8[]",
              "name": "mineLocations",
              "type": "uint8[]"
            },
            {
              "internalType": "bool",
              "name": "isActive",
              "type": "bool"
            }
          ],
          "internalType": "struct MinesGame.Game",
          "name": "",
          "type": "tuple"
        }
      ],
      "stateMutability": "view",
      "type": "function"
    },
    {
      "inputs": [],
      "name": "getSharedPoolBalance",
      "outputs": [
        {
          "internalType": "uint256",
          "name": "",
          "type": "uint256"
        }
      ],
      "stateMutability": "view",
      "type": "function"
    },
    {
      "inputs": [
        {
          "internalType": "uint8",
          "name": "tileIndex",
          "type": "uint8"
        }
      ],
      "name": "revealTile",
      "outputs": [],
      "stateMutability": "nonpayable",
      "type": "function"
    },
    {
      "inputs": [],
      "name": "sharedPoolBalance",
      "outputs": [
        {
          "internalType": "uint256",
          "name": "",
          "type": "uint256"
        }
      ],
      "stateMutability": "view",
      "type": "function"
    },
    {
      "inputs": [
        {
          "internalType": "uint8",
          "name": "numberOfMines",
          "type": "uint8"
        }
      ],
      "name": "startGame",
      "outputs": [],
      "stateMutability": "payable",
      "type": "function"
    },
    {
      "inputs": [],
      "name": "withdrawHouseFunds",
      "outputs": [],
      "stateMutability": "nonpayable",
      "type": "function"
    }
  ],
  "bytecode": "0x608060405234801561001057600080fd5b506000600181905550611e18806100286000396000f3fe6080604052600436106100915760003560e01c806379131a191161005957806379131a1914610169578063793cd71e146101aa578063a59b9eb2146101c1578063e484d6ac146101cb578063e6ab60791461020857610091565b8063168c698c1461009657806335371177146100c157806352def6db146100ea57806354e4437e146101155780636ce2abd714610152575b600080fd5b3480156100a257600080fd5b506100ab610224565b6040516100b8919061122e565b60405180910390f35b3480156100cd57600080fd5b506100e860048036038101906100e39190611287565b61022e565b005b3480156100f657600080fd5b506100ff610610565b60405161010c919061122e565b60405180910390f35b34801561012157600080fd5b5061013c60048036038101906101379190611312565b610616565b6040516101499190611588565b60405180910390f35b34801561015e57600080fd5b5061016761081e565b005b34801561017557600080fd5b50610190600480360381019061018b9190611312565b610871565b6040516101a19594939291906115d7565b60405180910390f35b3480156101b657600080fd5b506101bf6108ee565b005b6101c9610b28565b005b3480156101d757600080fd5b506101f260048036038101906101ed9190611656565b610b43565b6040516101ff919061122e565b60405180910390f35b610222600480360381019061021d9190611287565b610ba6565b005b6000600154905090565b60198160ff1610610274576040517f08c379a000000000000000000000000000000000000000000000000000000000815260040161026b90611706565b60405180910390fd5b6000803373ffffffffffffffffffffffffffffffffffffffff1673ffffffffffffffffffffffffffffffffffffffff16815260200190815260200160002060050160009054906101000a900460ff16610302576040517f08c379a00000000000000000000000000000000000000000000000000000000081526004016102f990611772565b60405180910390fd5b6000803373ffffffffffffffffffffffffffffffffffffffff1673ffffffffffffffffffffffffffffffffffffffff1681526020019081526020016000206003018160ff168154811061035857610357611792565b5b90600052602060002090602091828204019190069054906101000a900460ff16156103b8576040517f08c379a00000000000000000000000000000000000000000000000000000000081526004016103af9061180d565b60405180910390fd5b60008060003373ffffffffffffffffffffffffffffffffffffffff1673ffffffffffffffffffffffffffffffffffffffff16815260200190815260200160002090506001816003018360ff168154811061041557610414611792565b5b90600052602060002090602091828204019190066101000a81548160ff0219169083151502179055506000805b8260020160009054906101000a900460ff1660ff168160ff1610156104c2578360ff16836004018260ff168154811061047e5761047d611792565b5b90600052602060002090602091828204019190069054906101000a900460ff1660ff16036104af57600191506104c2565b80806104ba9061185c565b915050610442565b50801561057f5760008260050160006101000a81548160ff0219169083151502179055503373ffffffffffffffffffffffffffffffffffffffff167f10584ac5eb9dd23ee43e44bbd9c9497b456922afb4e45d02925d3b39fa075beb84600160405161052f929190611885565b60405180910390a23373ffffffffffffffffffffffffffffffffffffffff167fe52eca3d39fb231ad76fbb2384560be97f13bf0d9b9739a6d31c93acd38c4d9460405160405180910390a261060b565b81600201600181819054906101000a900460ff16809291906105a09061185c565b91906101000a81548160ff021916908360ff160217905550503373ffffffffffffffffffffffffffffffffffffffff167f10584ac5eb9dd23ee43e44bbd9c9497b456922afb4e45d02925d3b39fa075beb846000604051610602929190611885565b60405180910390a25b505050565b60015481565b61061e611050565b6000808373ffffffffffffffffffffffffffffffffffffffff1673ffffffffffffffffffffffffffffffffffffffff1681526020019081526020016000206040518060e00160405290816000820160009054906101000a900473ffffffffffffffffffffffffffffffffffffffff1673ffffffffffffffffffffffffffffffffffffffff1673ffffffffffffffffffffffffffffffffffffffff168152602001600182015481526020016002820160009054906101000a900460ff1660ff1660ff1681526020016002820160019054906101000a900460ff1660ff1660ff1681526020016003820180548060200260200160405190810160405280929190818152602001828054801561077557602002820191906000526020600020906000905b82829054906101000a900460ff1615158152602001906001019060208260000104928301926001038202915080841161073f5790505b50505050508152602001600482018054806020026020016040519081016040528092919081815260200182805480156107f357602002820191906000526020600020906000905b82829054906101000a900460ff1660ff16815260200190600101906020826000010492830192600103820291508084116107bc5790505b505050505081526020016005820160009054906101000a900460ff1615151515815250509050919050565b3373ffffffffffffffffffffffffffffffffffffffff166108fc6001549081150290604051600060405180830381858888f19350505050158015610866573d6000803e3d6000fd5b506000600181905550565b60006020528060005260406000206000915090508060000160009054906101000a900473ffffffffffffffffffffffffffffffffffffffff16908060010154908060020160009054906101000a900460ff16908060020160019054906101000a900460ff16908060050160009054906101000a900460ff16905085565b60008060003373ffffffffffffffffffffffffffffffffffffffff1673ffffffffffffffffffffffffffffffffffffffff16815260200190815260200160002090508060050160009054906101000a900460ff16610981576040517f08c379a000000000000000000000000000000000000000000000000000000000815260040161097890611772565b60405180910390fd5b60008160020160019054906101000a900460ff1660ff16116109d8576040517f08c379a00000000000000000000000000000000000000000000000000000000081526004016109cf90611920565b60405180910390fd5b6000610a0b82600101548360020160009054906101000a900460ff168460020160019054906101000a900460ff16610b43565b9050600154826001015482610a209190611940565b1115610a3b578160010154600154610a389190611974565b90505b60008260050160006101000a81548160ff021916908315150217905550808260010154610a689190611940565b60016000828254610a799190611974565b925050819055503373ffffffffffffffffffffffffffffffffffffffff166108fc828460010154610aaa9190611940565b9081150290604051600060405180830381858888f19350505050158015610ad5573d6000803e3d6000fd5b503373ffffffffffffffffffffffffffffffffffffffff167fdae072d96ce4f8bfc6557d4e8c29e0d1875b50c4efe52b340ab49669ec42ebe682604051610b1c919061122e565b60405180910390a25050565b3460016000828254610b3a9190611940565b92505081905550565b6000808260ff1603610b585760009050610b9f565b6000601983856019610b6a91906119a8565b610b7491906119dd565b610b7e9190611a49565b60ff16905060648186610b919190611a7a565b610b9b9190611abc565b9150505b9392505050565b60003411610be9576040517f08c379a0000000000000000000000000000000000000000000000000000000008152600401610be090611b5f565b60405180910390fd5b60018160ff1610158015610c01575060188160ff1611155b610c40576040517f08c379a0000000000000000000000000000000000000000000000000000000008152600401610c3790611bcb565b60405180910390fd5b6000803373ffffffffffffffffffffffffffffffffffffffff1673ffffffffffffffffffffffffffffffffffffffff16815260200190815260200160002060050160009054906101000a900460ff1615610ccf576040517f08c379a0000000000000000000000000000000000000000000000000000000008152600401610cc690611c5d565b60405180910390fd5b60008160ff1667ffffffffffffffff811115610cee57610ced611c7d565b5b604051908082528060200260200182016040528015610d1c5781602001602082028036833780820191505090505b5090506000601967ffffffffffffffff811115610d3c57610d3b611c7d565b5b604051908082528060200260200182016040528015610d6a5781602001602082028036833780820191505090505b50905060005b8360ff168160ff161015610e60576000805b600190506019423385604051602001610d9d93929190611d4b565b6040516020818303038152906040528051906020012060001c610dc09190611d88565b915060005b8360ff168160ff161015610e19578260ff16868260ff1681518110610ded57610dec611792565b5b602002602001015160ff1603610e065760009150610e19565b8080610e119061185c565b915050610dc5565b508015610d825781858460ff1681518110610e3757610e36611792565b5b602002602001019060ff16908160ff168152505050508080610e589061185c565b915050610d70565b506040518060e001604052803373ffffffffffffffffffffffffffffffffffffffff1681526020013481526020018460ff168152602001600060ff168152602001828152602001838152602001600115158152506000803373ffffffffffffffffffffffffffffffffffffffff1673ffffffffffffffffffffffffffffffffffffffff16815260200190815260200160002060008201518160000160006101000a81548173ffffffffffffffffffffffffffffffffffffffff021916908373ffffffffffffffffffffffffffffffffffffffff1602179055506020820151816001015560408201518160020160006101000a81548160ff021916908360ff16021790555060608201518160020160016101000a81548160ff021916908360ff1602179055506080820151816003019080519060200190610fa19291906110ab565b5060a0820151816004019080519060200190610fbe929190611151565b5060c08201518160050160006101000a81548160ff0219169083151502179055509050503460016000828254610ff49190611940565b925050819055503373ffffffffffffffffffffffffffffffffffffffff167faa236a91feb102276268750c1e3a04087ba228f0e931a62b6a28674de93151b43485604051611043929190611db9565b60405180910390a2505050565b6040518060e00160405280600073ffffffffffffffffffffffffffffffffffffffff16815260200160008152602001600060ff168152602001600060ff16815260200160608152602001606081526020016000151581525090565b82805482825590600052602060002090601f016020900481019282156111405791602002820160005b8382111561111157835183826101000a81548160ff02191690831515021790555092602001926001016020816000010492830192600103026110d4565b801561113e5782816101000a81549060ff0219169055600101602081600001049283019260010302611111565b505b50905061114d91906111f8565b5090565b82805482825590600052602060002090601f016020900481019282156111e75791602002820160005b838211156111b857835183826101000a81548160ff021916908360ff160217905550926020019260010160208160000104928301926001030261117a565b80156111e55782816101000a81549060ff02191690556001016020816000010492830192600103026111b8565b505b5090506111f491906111f8565b5090565b5b808211156112115760008160009055506001016111f9565b5090565b6000819050919050565b61122881611215565b82525050565b6000602082019050611243600083018461121f565b92915050565b600080fd5b600060ff82169050919050565b6112648161124e565b811461126f57600080fd5b50565b6000813590506112818161125b565b92915050565b60006020828403121561129d5761129c611249565b5b60006112ab84828501611272565b91505092915050565b600073ffffffffffffffffffffffffffffffffffffffff82169050919050565b60006112df826112b4565b9050919050565b6112ef816112d4565b81146112fa57600080fd5b50565b60008135905061130c816112e6565b92915050565b60006020828403121561132857611327611249565b5b6000611336848285016112fd565b91505092915050565b611348816112d4565b82525050565b61135781611215565b82525050565b6113668161124e565b82525050565b600081519050919050565b600082825260208201905092915050565b6000819050602082019050919050565b60008115159050919050565b6113ad81611398565b82525050565b60006113bf83836113a4565b60208301905092915050565b6000602082019050919050565b60006113e38261136c565b6113ed8185611377565b93506113f883611388565b8060005b8381101561142957815161141088826113b3565b975061141b836113cb565b9250506001810190506113fc565b5085935050505092915050565b600081519050919050565b600082825260208201905092915050565b6000819050602082019050919050565b600061146e838361135d565b60208301905092915050565b6000602082019050919050565b600061149282611436565b61149c8185611441565b93506114a783611452565b8060005b838110156114d85781516114bf8882611462565b97506114ca8361147a565b9250506001810190506114ab565b5085935050505092915050565b600060e0830160008301516114fd600086018261133f565b506020830151611510602086018261134e565b506040830151611523604086018261135d565b506060830151611536606086018261135d565b506080830151848203608086015261154e82826113d8565b91505060a083015184820360a08601526115688282611487565b91505060c083015161157d60c08601826113a4565b508091505092915050565b600060208201905081810360008301526115a281846114e5565b905092915050565b6115b3816112d4565b82525050565b6115c28161124e565b82525050565b6115d181611398565b82525050565b600060a0820190506115ec60008301886115aa565b6115f9602083018761121f565b61160660408301866115b9565b61161360608301856115b9565b61162060808301846115c8565b9695505050505050565b61163381611215565b811461163e57600080fd5b50565b6000813590506116508161162a565b92915050565b60008060006060848603121561166f5761166e611249565b5b600061167d86828701611641565b935050602061168e86828701611272565b925050604061169f86828701611272565b9150509250925092565b600082825260208201905092915050565b7f496e76616c69642074696c6520696e6465780000000000000000000000000000600082015250565b60006116f06012836116a9565b91506116fb826116ba565b602082019050919050565b6000602082019050818103600083015261171f816116e3565b9050919050565b7f4e6f206163746976652067616d65000000000000000000000000000000000000600082015250565b600061175c600e836116a9565b915061176782611726565b602082019050919050565b6000602082019050818103600083015261178b8161174f565b9050919050565b7f4e487b7100000000000000000000000000000000000000000000000000000000600052603260045260246000fd5b7f54696c6520616c72656164792072657665616c65640000000000000000000000600082015250565b60006117f76015836116a9565b9150611802826117c1565b602082019050919050565b60006020820190508181036000830152611826816117ea565b9050919050565b7f4e487b7100000000000000000000000000000000000000000000000000000000600052601160045260246000fd5b60006118678261124e565b915060ff820361187a5761187961182d565b5b600182019050919050565b600060408201905061189a60008301856115b9565b6118a760208301846115c8565b9392505050565b7f4d7573742072657665616c206174206c65617374206f6e65207361666520746960008201527f6c65000000000000000000000000000000000000000000000000000000000000602082015250565b600061190a6022836116a9565b9150611915826118ae565b604082019050919050565b60006020820190508181036000830152611939816118fd565b9050919050565b600061194b82611215565b915061195683611215565b925082820190508082111561196e5761196d61182d565b5b92915050565b600061197f82611215565b915061198a83611215565b92508282039050818111156119a2576119a161182d565b5b92915050565b60006119b38261124e565b91506119be8361124e565b9250828203905060ff8111156119d7576119d661182d565b5b92915050565b60006119e88261124e565b91506119f38361124e565b9250828202611a018161124e565b9150808214611a1357611a1261182d565b5b5092915050565b7f4e487b7100000000000000000000000000000000000000000000000000000000600052601260045260246000fd5b6000611a548261124e565b9150611a5f8361124e565b925082611a6f57611a6e611a1a565b5b828204905092915050565b6000611a8582611215565b9150611a9083611215565b9250828202611a9e81611215565b91508282048414831517611ab557611ab461182d565b5b5092915050565b6000611ac782611215565b9150611ad283611215565b925082611ae257611ae1611a1a565b5b828204905092915050565b7f42657420616d6f756e74206d7573742062652067726561746572207468616e2060008201527f3000000000000000000000000000000000000000000000000000000000000000602082015250565b6000611b496021836116a9565b9150611b5482611aed565b604082019050919050565b60006020820190508181036000830152611b7881611b3c565b9050919050565b7f4d696e6573206d757374206265206265747765656e203120616e642032340000600082015250565b6000611bb5601e836116a9565b9150611bc082611b7f565b602082019050919050565b60006020820190508181036000830152611be481611ba8565b9050919050565b7f506c6179657220616c72656164792068617320616e206163746976652067616d60008201527f6500000000000000000000000000000000000000000000000000000000000000602082015250565b6000611c476021836116a9565b9150611c5282611beb565b604082019050919050565b60006020820190508181036000830152611c7681611c3a565b9050919050565b7f4e487b7100000000000000000000000000000000000000000000000000000000600052604160045260246000fd5b6000819050919050565b611cc7611cc282611215565b611cac565b82525050565b60008160601b9050919050565b6000611ce582611ccd565b9050919050565b6000611cf782611cda565b9050919050565b611d0f611d0a826112d4565b611cec565b82525050565b60008160f81b9050919050565b6000611d2d82611d15565b9050919050565b611d45611d408261124e565b611d22565b82525050565b6000611d578286611cb6565b602082019150611d678285611cfe565b601482019150611d778284611d34565b600182019150819050949350505050565b6000611d9382611215565b9150611d9e83611215565b925082611dae57611dad611a1a565b5b828206905092915050565b6000604082019050611dce600083018561121f565b611ddb60208301846115b9565b939250505056fea2646970667358221220936a8545911ae9837d29207e38d5e7be987460685419e075e3e162d20accc17d64736f6c63430008130033",
  "linkReferences": {},
  "deployedLinkReferences": {}
}